:100000000C947C000C94A4000C94A4000C94A40008
:100010000C94A4000C94A4000C94A4000C941A1743
:100020000C94A4000C94A4000C94A4000C94A400C0
:100030000C94A4000C94A4000C94A4000C94A400B0
:100040000C94D0160C94A4000C949C170C94761766
:100050000C94A4000C94A4000C94A4000C94A40090
:100060000C94CE170C94A40002000000002400277A
:10007000002A0000000000230026002900000000E4
:100080000800020100000304070000000000000057
:1000900000CDCCCC3D0AD7233C17B7D13877CC2B39
:1000A000329595E6241FB14F0A000020410000C898
:1000B0004200401C4620BCBE4CCA1B0E5AAEC59D19
:1000C000740102040810204080010204081020017D
:1000D000020408102000000000250028002B000466
:1000E00004040404040404020202020202030303DF
:1000F000030303002719071911241FBECFEFD8E00F
:10010000DEBFCDBF24E0A0E0B3E001C01D92AE3859
:10011000B207E1F713E0A0E0B1E0E4EEFCE402C0D6
:1001200005900D92A030B107D9F710E0CBE7D0E0F1
:1001300004C02197FE010E945D24CA37D107C9F788
:100140000E94161A0C9465260C9400002F923F9280
:100150004F925F926F927F928F929F92AF92BF92D7
:10016000CF92DF92EF92FF920F931F93CF93DF9383
:1001700000D000D000D01F92CDB7DEB79A8389831C
:100180004A015B0120E836E948E15BE4CB01B401B8
:100190000E94E82387FD89C004E110E080E290E03E
:1001A0009C838B83312C212CF801E755FF4F25913F
:1001B000359145915491C501B4010E94E82387FD12
:1001C00011C0F801EF56FF4F25913591459154919B
:1001D000C501B4010E943D224B015C01AB81BC8191
:1001E0002A0E3B1EEB81FC81F595E795FC83EB83A2
:1001F000045011090C3FFFEF1F07B1F677247A94E2
:1002000020E030E0A901C501B4010E94E8231816DE
:100210000CF054C02CEA35EC47E257E3C501B401B9
:100220000E94D72118160CF449C0972DA4E09A0219
:1002300080011124F12CE12CF801EF56FF4F6F01E2
:1002400007551F4FFFEF7F1609F438C0F601EE0D7A
:10025000FF1D659175918591949120E030E040E219
:1002600051E40E943D22A50194010E94E823181642
:100270008CF4F801EE0DFF1D2591359145915491B7
:10028000C501B4010E943D224B015C018B819C8120
:10029000281A390AAB81BC81B595A795BC83AB837D
:1002A0007A94B4E0EB1AF108CDCF80E290E09C8321
:1002B0008B8335E0732E312C212CA2CFC501B401E4
:1002C0000E94B9236B017C012B013C0180E492E484
:1002D000AFE0B0E08B839C83AD83BE8396E09F83C9
:1002E000AAE04A16510461047104E0F06B817C813C
:1002F0008D819E812AE030E040E050E00E9415248C
:100300002B833C834D835E83BF81B150BF83C30188
:10031000B2012AE030E040E050E00E9415242901BB
:100320003A01DECFC701B6010E94DC219B01AC017E
:10033000C501B4010E944C234B015C016B817C819F
:100340008D819E810E94DC219B01AC01C501B4011D
:100350000E943D222B013C010E94B9234B015C010C
:100360000E94DC219B01AC01C301B2010E944C231D
:100370009B01AC010E944D230E94B923860E971E5B
:10038000A81EB91E8B819C81AD81BE8188169906FD
:10039000AA06BB06C0F09FEFC91AD90AE90AF90AF2
:1003A0002114310439F1AAE0CA16D104E104F104A0
:1003B00008F1BFEF2B1A3B0A812C912C5401C12C60
:1003C000D12C7601C3948AE0482E512C612C712CDB
:1003D000C501B401A30192010E941524672B682B6B
:1003E000692B61F4EF811E164CF449015A01E1506A
:1003F000EF83EECF812C912C5401E5CFA981BA81F6
:10040000CD92DD92ED92FC921397FD01848295824C
:10041000A682B782318620868F818287CD0127967A
:100420000FB6F894DEBF0FBECDBFDF91CF911F9105
:100430000F91FF90EF90DF90CF90BF90AF909F9083
:100440008F907F906F905F904F903F902F90089586
:10045000833081F028F4813099F08230A9F008953A
:100460008730A9F08830C9F08430B1F480918000E1
:100470008F7D03C0809180008F77809380000895E6
:1004800084B58F7784BD089584B58F7DFBCF80912F
:10049000B0008F778093B00008958091B0008F7D79
:1004A000F9CFCF93DF93282F30E0F901E358FF4FC6
:1004B0008491F901EF53FF4FD491F901E152FF4FBD
:1004C000C491CC23A1F081110E942802EC2FF0E00E
:1004D000EE0FFF1FED58FF4FA591B491EC91ED2366
:1004E00081E090E009F480E0DF91CF91089580E011
:1004F00090E0FACF1F93CF93DF93282F30E0F901DC
:10050000E358FF4F8491F901EF53FF4FD491F90164
:10051000E152FF4FC491CC23A9F0162F81110E9404
:100520002802EC2FF0E0EE0FFF1FEB52FF4FA591DA
:10053000B4918FB7F894EC91111108C0D095DE23D7
:10054000DC938FBFDF91CF911F910895DE2BF8CF01
:10055000CF93DF9390E0FC01EF53FF4F2491815242
:100560009F4FFC0184918823C9F090E0880F991F68
:10057000FC01E759FF4FA591B491FC01EB52FF4FED
:10058000C591D49161110DC09FB7F8948C912095BD
:1005900082238C938881282328839FBFDF91CF916A
:1005A0000895623051F49FB7F8943C91822F809562
:1005B00083238C93E8812E2BEFCF8FB7F894EC91A7
:1005C0002E2B2C938FBFEACF3FB7F89480918303F3
:1005D00090918403A0918503B091860326B5A89BD2
:1005E00005C02F3F19F00196A11DB11D3FBFBA2FC5
:1005F000A92F982F8827BC01CD01620F711D811D85
:10060000911D42E0660F771F881F991F4A95D1F709
:1006100008950F931F93CF93DF93CDB7DEB729973C
:100620000FB6F894DEBF0FBECDBF0E94E40200916A
:10063000830410918404209185043091860460170E
:1006400071078207930740F46093830470938404D6
:100650008093850490938604009183041091840410
:100660002091850430918604601B710B820B930BE3
:100670006C32714081059105C0F2F8948091780444
:10068000909179049A838983E0917D04F0917E04AE
:10069000DF0111968081898790917404E09187042D
:1006A000F091880480918904992309F445C09081D0
:1006B000982B98879081809589238F838F818C8355
:1006C00088E08B8358856F8149853B812C818981A6
:1006D0009A81508347FD252F3A952083262F39F0A4
:1006E000441F00C000006083000000C0F2CF38E06B
:1006F0004D9160830000019761F7F0938804E093C7
:10070000870449873B832C839A83898378940E944A
:10071000E40260938304709384048093850490932F
:10072000860429960FB6F894DEBF0FBECDBFDF91C9
:10073000CF911F910F9108959081982B9887908168
:10074000809589238F838F818E8388E08D83588560
:100750006F8149853D812E8189819A81508347FD32
:10076000252F00C000C0208300C000C000C000C012
:1007700000C060830000262F3A9541F0441F00001E
:1007800000C000C000C000C000C0E8CF38E04D91FC
:1007900000C0608300C0019709F7F0938804E093DC
:1007A000870449873D832E83AFCF8F929F92AF926C
:1007B000BF92CF92DF92EF92FF926B017C010E9479
:1007C000E4024B015C01C114D104E104F104B9F06D
:1007D0000E94E402681979098A099B09683E7340FE
:1007E0008105910580F321E0C21AD108E108F108E2
:1007F00088EE880E83E0981EA11CB11CE4CFFF9008
:10080000EF90DF90CF90BF90AF909F908F90089522
:1008100008959091000189130BC0E8E6F0E0E4919F
:100820009FEF90930001E13049F028F0E23061F051
:1008300060E00C947A0210926E00FACF90916F00F3
:100840009D7F90936F00F4CF909170009D7F909367
:10085000700091E09093B0009091B100987F946007
:100860009093B1001092B300E3CFAF92BF92CF92BA
:10087000DF92EF92FF920F931F93CF93DF936C0160
:100880007B018B01040F151FEB015E01AE18BF0841
:10089000C017D10759F06991D601ED91FC910190F3
:1008A000F081E02DC6010995892B79F7C501DF910B
:1008B000CF911F910F91FF90EF90DF90CF90BF905D
:1008C000AF900895FC01538D448D252F30E0842F87
:1008D00090E0821B930B541710F0CF960895019768
:1008E0000895FC01918D828D981761F0A28DAE0F55
:1008F000BF2FB11D5D968C91928D9F5F9F73928FDC
:1009000090E008958FEF9FEF08952FB7F8948091AE
:10091000870390918803A0918903B0918A032FBF28
:100920008093930390939403A0939503B0939603BD
:100930008BE893E00E94710497FF26C02FB7F894CC
:100940008091870390918803A0918903B0918A03D5
:100950002FBF409193035091940360919503709140
:100960009603841B950BA60BB70B40918F035091F8
:100970009003609191037091920384179507A607E5
:10098000B707B0F28FEF9FEF0895FC01918D828D34
:10099000981731F0828DE80FF11D858D90E0089554
:1009A0008FEF9FEF0895FC01918D228D892F90E0AC
:1009B000805C9F4F821B91098F73992708958BE864
:1009C00093E00E94D30421E0892B09F420E0822FD8
:1009D000089580E090E0892B29F00E94DF048111C6
:1009E0000C9400000895FC01A48DA80FB92FB11D2F
:1009F000A35ABF4F2C91848D90E001968F73992755
:100A0000848FA689B7892C93A089B1898C91837032
:100A100080648C93938D848D981306C00288F3892B
:100A2000E02D80818F7D80830895EF92FF920F9358
:100A30001F93CF93DF93EC0181E0888F9B8D8C8D8A
:100A400098131AC0E889F989808185FF15C09FB77E
:100A5000F894EE89FF896083E889F9898081837041
:100A6000806480839FBF81E090E0DF91CF911F91F0
:100A70000F91FF90EF900895F62E0B8D10E00F5F11
:100A80001F4F0F731127E02E8C8D8E110CC00FB6E7
:100A900007FCFACFE889F989808185FFF5CFCE017F
:100AA0000E94F304F1CFEB8DEC0FFD2FF11DE35A03
:100AB000FF4FF0829FB7F8940B8FEA89FB89808102
:100AC0008062CFCFCF93DF93EC01888D8823B9F07C
:100AD000AA89BB89E889F9898C9185FD03C0808149
:100AE00086FD0DC00FB607FCF7CF8C9185FFF2CFC6
:100AF000808185FFEDCFCE010E94F304E9CFDF9125
:100B0000CF91089520912703260F3327331F2132D9
:100B10003105ECF420914B03FC0190E080E024309F
:100B200069F082E00895A09127032191AC01495F0B
:100B30005C4FA40FB52FB11D2C930196861798F327
:100B400080912703680F6093270380E0089581E078
:100B5000089508958FEF9FEF08958FEF9FEF089509
:100B60008091000390E09195819591090895CF932C
:100B7000DF93CB01EA01642F0E948205CE01DF9151
:100B8000CF910895CF93DF931F92CDB7DEB76983DE
:100B900061E0CE0101960E94820581E090E00F9015
:100BA000DF91CF91089590E080E008956F3FA9F024
:100BB000E62FE295EF7044E0E49F90011124DC0100
:100BC000ED91FC91E20FF31F6F7082819381B6E08B
:100BD0006B9F800D911D1124089590E080E0089591
:100BE000CF93DF93EC0188819981DC01ED91FC9139
:100BF0000190F081E02D09952A813B81820F931F9E
:100C00009B838A83DF91CF910895982F80336CF076
:100C10008A3324F08F3524F08B3724F481E0089553
:100C200081341CF081E09B350CF080E00895CF9377
:100C3000DF93EC0188819981DC01ED91FC910280C8
:100C4000F381E02D09952A813B81820F931F9B83BD
:100C50008A83DF91CF9108958F929F92AF92BF9236
:100C6000CF92DF92EF92FF920F931F93CF93DF9378
:100C7000CDB7DEB766970FB6F894DEBF0FBECDBF17
:100C80006C018E01095E1F4F78018AE0882E912C3D
:100C9000A12CB12CCB01BA01A50194010E9415240D
:100CA000942F852F605DF80162938F01A901692F50
:100CB000782F411551056105710561F7A7014E1B9C
:100CC0005F0BBF01C6010E94170666960FB6F89427
:100CD000DEBF0FBECDBFDF91CF911F910F91FF906F
:100CE000EF90DF90CF90BF90AF909F908F9008953E
:100CF000FC018485811114C0A781B085818592850E
:100D00002FEF3FEFA817B90730F4CD010196908778
:100D100087832C9130E037FD20E0238781E08487B2
:100D2000838508951F93CF93DF93EC01162F0E94C4
:100D30007806811306C01C8681E0DF91CF911F9158
:100D4000089580E0FACF0F931F93CF93DF938C0128
:100D5000EB018991882369F0C8010E9478068823F5
:100D600079F0FE013197908198130DC0F801148637
:100D7000F0CF90E080E0DF91CF911F910F91089527
:100D800082E090E0F8CF83E090E0F5CFCF93DF935F
:100D9000EC01CE010E9478068B304CF489305CF473
:100DA000882359F081E08E8390E080E00BC08D3085
:100DB00011F08032B9F71C86ECCF8E81811105C00D
:100DC00081E090E0DF91CF91089582E090E0FACF4A
:100DD000CF93DF93DB01FC01808191810097E1F0EB
:100DE00012962C91129713964C911397342F3F77AC
:100DF000FC0143814217130671F7ED91FC911197A5
:100E0000EC0124962E0F3F1FE217F30729F05191B2
:100E100049915417C9F3DFCFDF91CF910895DC01D9
:100E200052969C915297915084E0989F9001112482
:100E30005096ED91FC91E20FF31F22813381211531
:100E4000310579F041818081481758F481E0840FA1
:100E5000818386E0489F200D311D11242115310525
:100E600021F460E070E08FEF0895B901892F829539
:100E7000807F840F0895DF92EF92FF920F931F936C
:100E8000CF93DF93EC017B01D12C688979898A8922
:100E9000D816E0F484E0D89E80011124060F171FB5
:100EA000D80112966D917C916115710541F0D701C1
:100EB000ED91FC910280F381E02DC7010995F801C5
:100EC0001382128210821182D394DFCF1A8A8FEF9D
:100ED0008C8BC617D70761F0D701ED91FC9102808A
:100EE000F381E02DC7010995D98BC88B84E08B8BEA
:100EF000DF91CF911F910F91FF90EF90DF900895B8
:100F00009F92AF92BF92CF92DF92EF92FF920F9398
:100F10001F93CF93DF936B017C0187012227332737
:100F2000A02EBD2CD0E0C0E0962E8091760490914A
:100F30007704C817D907C0F5392D80917C042B2D73
:100F40006A2D882371F0809F9001819F300D1124BC
:100F5000632F8B9D90011124232F8C9DC0011124A0
:100F6000392FE091820480917D0490917E0440911C
:100F70007F04E41338C0AE01440F551F4C0F5D1FB2
:100F8000840F951FE0917F04E80FF92FF11D608316
:100F9000E0918004E80FF92FF11D20832091810456
:100FA000820F911DFC01308380917D0490917E041D
:100FB000892B11F00E94090362E370E080E090E069
:100FC0000E94D5032196C931D10509F0AECFDF913A
:100FD000CF911F910F91FF90EF90DF90CF90BF9036
:100FE000AF909F900895AE01440F551F440F551FB9
:100FF000840F951FE80FF92FF11D1082C3CFCF92F8
:10100000DF92EF92FF920F931F93CF93DF937C01B8
:101010006B018A01FC01C081D1814F3F510509F06C
:10102000B0F4E881F9810480F581E02D4B5F5F4FDA
:10103000CE010995009759F0FC010383DF91CF9110
:101040001F910F91FF90EF90DF90CF900895E8816E
:10105000F9810280F381E02DB601CE01099581E08E
:10106000F701828390E080E0E9CF1F93CF93DF9375
:10107000EC01162F6A817B816115710589F04C8125
:101080005D81FB0183818417150651F4440F551FC0
:101090004F5F5F4F888199810E94FF079B838A83FE
:1010A0008A819B81009759F02C813D81A9014F5F76
:1010B0005F4F5D834C83820F931FFC011483DF918C
:1010C000CF911F9108959F92AF92BF92CF92DF92DE
:1010D000EF92FF920F931F93CF93DF9300D000D036
:1010E0001F92CDB7DEB78C010E947806D82EF8018A
:1010F0001486F12CE12C60EFC62EC8010E94780600
:10110000F8011486D81609F4B3C0811113C082E027
:1011100090E00F900F900F900F900F90DF91CF9174
:101120001F910F91FF90EF90DF90CF90BF90AF9005
:101130009F9008958C3509F099C0C8010E947806E7
:10114000882329F3EBEEF1E0853709F083C0F8013D
:10115000148654E0952EB12CA12CC8010E9478066B
:101160008823A9F2813434F48053803130F083E055
:1011700090E0CFCF8F7D8753F8CF44E0AA0CBB1C03
:101180004A95E1F7A82AF80114869A949110E5CFC0
:10119000C501985D8115944020F47501F3E0FF22AC
:1011A000ACCFC5019C5D81159440A8F483E0B822C2
:1011B000B701762F6627770F770F6A297B2990E092
:1011C00080E00196603871058105910540F4C80101
:1011D0000E94350892CFB50190E080E0F3CF1982EC
:1011E000262F2F7320682A8326E09695879577957A
:1011F00067952A95D1F76032710580F4606C6B8336
:101200005E01E4E0AE0EB11CF50162915F01662360
:1012100009F473CFC8010E943508F6CF262F2F732B
:1012200020682B8386E0769567958A95E1F7603193
:10123000710538F4606E6C835E01F5E0AF0EB11C91
:10124000E3CF60686C83CD825E0126E0A20EB11C04
:10125000DBCF32969081992309F489CF8913F9CF96
:101260008181882309F483CFF8011486682FAFCFDA
:1012700082819381892B19F484E090E04ACF90E039
:1012800080E047CFAF92BF92CF92DF92EF92FF9272
:101290000F931F93CF93DF9300D000D0CDB7DEB76D
:1012A000DC0112962D913C9113972C5F3F4F1496C1
:1012B0004D915C914430510580F57901D901E0E010
:1012C000142F022FFA2FF21BF11730F4DD90F1E00A
:1012D000D110F0E0EF2BF6CFE1111FC082E0FB014F
:1012E00084838E2D801B811728F4D7018D917D0179
:1012F0008193F7CF640F751FFB0110820F900F9041
:101300000F900F90DF91CF911F910F91FF90EF9071
:10131000DF90CF90BF90AF9008957B018C01420F7A
:10132000531FDA011C92FC01C080D180A480B580DB
:101330003A832983AB828B2D8F778C83BE016F5FBD
:101340007F4FC60103960E94E8060097D9F4D801A2
:1013500012966D917C91A501C6010E94FF07D801EC
:10136000ED91FC9123813481DC012D933C93948396
:101370008383F8011382128225E0F701248391838D
:101380008083BCCFDC0112962C9112972F5F1296AE
:101390002C93F2CFDB01ED91FC9111970280F38148
:1013A000E02DBC01CD010994AF92BF92CF92DF92A4
:1013B000EF92FF920F931F93CF93DF93EC018B017A
:1013C0008C8180FF24C0A881B981FB018381948135
:1013D00030E020E00097D9F0A817B907D1F5F8015F
:1013E0006081718112968C911297815012968C9324
:1013F000129781110CC08D919C9111972115310587
:1014000029F1F90191838083CD010E94CA098C8161
:10141000807631F1209721F1F8805801F5E1AF0E87
:10142000B11C8FEFF816D1F06F2DC5010E94D605C3
:101430006C01FC01E580B8010E94D409F801818D9E
:10144000F6018083F801F18EFE2CEBCF9483838329
:10145000DBCF9C01FC0180819181BCCFF882F982B5
:101460001C82DF91CF911F910F91FF90EF90DF9041
:10147000CF90BF90AF9008950F931F93CF93DF93BA
:10148000EC016881798105960E943B071A820881E8
:1014900019818B819C81009749F0FC012081318169
:1014A0003C832B83B8010E94CA09F3CFDF91CF910F
:1014B0001F910F910895CF93DF93EC01CB01CF3FA4
:1014C000D10509F0B0F4BE016B5F7F4F6C177D074B
:1014D00080F0DC01ED91FC910190F081E02D099507
:1014E000009721F0FC01C38321E02283DF91CF919B
:1014F000089590E080E0FACF8F929F92AF92BF92D2
:10150000CF92DF92EF92FF920F931F93CF93DF93CF
:1015100000D000D0CDB7DEB7DC0169014A0141152A
:10152000510509F456C077FF08C084E014968C93E7
:1015300014974D935C9381E04DC07F777B016430BD
:10154000710518F5FA0190E0242F8E2F881986175F
:1015500030F4819131E0811130E0932BF6CF91117D
:1015600014C082E014968C9314978D01842F821BF3
:10157000861738F4FA018191AF01F80181938F0148
:10158000F5CFA60FB11D1C92D6CF8D01F601A0801C
:10159000B1809A8289826B837C83BE016F5F7F4FAB
:1015A000C60103960E94E806009751F0FC012281D3
:1015B0002F5F228325E0F801248391838083BBCFB2
:1015C000B501C7010E945B0A0097A9F481E0F6010A
:1015D000828380E00F900F900F900F90DF91CF915A
:1015E0001F910F91FF90EF90DF90CF90BF90AF9041
:1015F0009F908F900895E981FA81DC011496A701EC
:101600004E0F5F1FE417F50719F021912D93FACFC4
:10161000FC01EE0DFF1D1482F60123813481FC01D3
:1016200031832083F60194838383C4CFCF93DF93E8
:10163000EC0188819981009711F00E94FF241982A2
:1016400018821D821C821B821A82DF91CF9108951D
:10165000FC0180819181009711F00C94FF24089582
:10166000CB010C94FF24CB010C946324FC0101906A
:101670000020E9F73197AF01481B590BBC018BE8FB
:1016800093E00C9435048EEF91E00C94360BCF93DD
:10169000DF93FC0144815581608171818BE893E087
:1016A0000E943504EC010E94430B8C0F9D1FDF91BB
:1016B000CF910895CF93DF930E94360BEC010E94E7
:1016C000430B8C0F9D1FDF91CF910895FB0101907B
:1016D0000020E9F73197AF01461B570B0C94170612
:1016E000CF92DF92EF92FF920F931F93CF93DF93EE
:1016F0008C016B017A0162E20E94F005E601EC0CBC
:10170000FD1CEC16FD0699F06991EBEEF1E0D4803A
:10171000DD20C9F0329683816813F9CF6CE5C801EA
:101720000E94F0056D2DC8010E94F005EACF62E22B
:10173000C801DF91CF911F910F91FF90EF90DF9043
:10174000CF900C94F0056111EECF61E072E0C8011A
:101750000E94660BD6CFFC0130E020E061157105D8
:1017600049F0DB010D900020E9F79D01215031097E
:10177000261B370B718360832283832F8F7793819E
:101780009078982B40FB97F9938308952F923F927E
:101790004F925F926F927F928F929F92AF92BF9281
:1017A000CF92DF92EF92FF920F931F93CF93DF932D
:1017B000CDB7DEB7A1970FB6F894DEBF0FBECDBF91
:1017C0007C018B01DC0114968C911497863009F40E
:1017D00071C1E0F4833009F45DC158F440E0B70111
:1017E000823009F42FC168E072E0C8010E94660BE4
:1017F000F3C0843009F423C18530A9F7ED91FC9141
:10180000438150E0BF016C5F7F4F25C18E3009F4EA
:1018100043C0E0F48A3009F448C18C3021F7CD9000
:10182000DD90ED90FC90B701A601F7FE0BC06DE2D4
:10183000C8010E94F00544275527BA014C195D09DB
:101840006E097F09C8010E942C0608C1803209F484
:10185000CDC0803441F66BE5C8010E94F005F70168
:10186000F080FFEFFF1609F4BCC0D80114968D91EB
:101870009C916F2D45960E94D6057C01B8010E946F
:10188000C60BF701F580FFEFFF1609F4AAC06CE262
:10189000C8010E94F005E5CFF701C080D180E28049
:1018A000F380A7019601C701B6010E94D7218111DB
:1018B0009ACF20E030E0A901C701B6010E94D721EC
:1018C000882379F0A7019601C701B6010E944D2334
:1018D0009B01AC01C701B6010E94D721882309F4FE
:1018E00082CF20E030E0A901C701B6010E94D721D4
:1018F00087FF08C06DE2C8010E94F005F7FAF09476
:10190000F7F8F0945E01F7E1AF0EB11CB701A60144
:10191000C5010E94A600EF8CF8A0D9A04F89588D70
:10192000698D7A8DC8010E942C06DD2091F16B8DA6
:101930007C8D8D8D9E8D3E0121E1620E711CCD2C22
:1019400043012AE0222E312C412C512CCA94AFEFB6
:10195000CA1659F0A20191010E941524605DF3019D
:1019600062933F01B901CA01F1CF8D2D90E0BC0116
:1019700060957095F401E81BF90B31978EE2808336
:1019800044275527461B570B680D791DC8010E9437
:101990001706E114F10401F165E6C8010E94F005A3
:1019A000F7FE07C06DE2C8010E94F005F194E194D2
:1019B000F108F5012AE030E0C701B9010E94ED23EA
:1019C000805D82937B01672BB9F7A5014E1B5F0BEE
:1019D000BF01C8010E941706D80112968D919C91F3
:1019E00040C06DE5C8010E94F005F6CF6BE7C80165
:1019F0000E94F005F701F080EE24E394BB24B39439
:101A0000FFEFFF16D1F0D80114968D919C916F2DA8
:101A100045960E94D6056C01B8010E94C60BF601DE
:101A2000F580FFEFFF1639F06AE3E11001C06CE2C8
:101A3000C8010E94F005EB24E3CF6DE7D3CF6D9191
:101A40007C9141E0CE0101960E94AB0B4B815C8101
:101A50005F7769817A81C8010E94700BF8018281E9
:101A60009381A1960FB6F894DEBF0FBECDBFDF9174
:101A7000CF911F910F91FF90EF90DF90CF90BF908B
:101A8000AF909F908F907F906F905F904F903F901E
:101A90002F900895ED91FC91438150E0BF016C5F60
:101AA0007F4FC8010E941706D9CF4D915D916D916E
:101AB0007C91C8CE8C916DE072E0811102C062E130
:101AC00072E0C8010E94660BC9CFCF93DF9300D0AC
:101AD00000D000D0CDB7DEB7DC01CB012BE833E07E
:101AE0003A8329831C821B82BE83AD83009771F0E9
:101AF000BE016F5F7F4F0E94C60B26960FB6F8940B
:101B0000DEBF0FBECDBFDF91CF91089568E072E0D8
:101B1000CE0101960E94660B8B819C81EECFCF9304
:101B2000DF9300D000D0CDB7DEB7FC0184818430D4
:101B300061F08530E1F040E0BF01823049F060E0C3
:101B400070E080E090E090680BC06081718141E0BE
:101B5000CE0101960E94AB0B69817A818B819C81B9
:101B60000F900F900F900F90DF91CF91089580818B
:101B70009181FC01238130E00496BC01C9019F776B
:101B80009F77EECFBF92CF92DF92EF92FF920F93AB
:101B90001F93CF93DF93D62EC72E8A01452B09F4CE
:101BA00042C0E9016596FC016081CE010E94D60524
:101BB000FF24FA94009711F0FC01F580EE24E394E1
:101BC000BB24B394009779F1EE20B1F00E948F0D01
:101BD0002D2D3C2D3F77AC015F772417350761F43D
:101BE000D801E62FF72F200F311F2A173B0771F07E
:101BF0009D9181919817C9F3EB246F2DCE010E941E
:101C0000D6050097F9F2FC01F580DCCF6F2DCE01EF
:101C1000DF91CF911F910F91FF90EF90DF90CF90C8
:101C2000BF900C94D60590E080E0DF91CF911F919A
:101C30000F91FF90EF90DF90CF90BF900895FC013F
:101C400024813581232B39F421E0FB018081882315
:101C500049F020E007C0808191810E94552621E053
:101C6000892BB9F7822F08950F931F93CF93DF939A
:101C7000EC0188819981009759F02A813B812617D0
:101C8000370730F081E0DF91CF911F910F910895D8
:101C90008B016F5F7F4F0E948825009759F09983D1
:101CA00088831B830A832C813D81232B59F7FC01F8
:101CB0001082E8CF80E0E7CFEF92FF920F931F935F
:101CC000CF93DF936115710541F480E0DF91CF91EF
:101CD0001F910F91FF90EF90089541155105B1F0BC
:101CE0007B01EC010C811D81040F151FB8010E94BE
:101CF000340E882351F3288139818C819D81B7016D
:101D0000820F931F0E945E261D830C8381E0DECF2D
:101D1000CF93DF93EC01FB01448155816081718198
:101D20000E945C0E811103C0CE010E94160BCE01F1
:101D3000DF91CF910895CF93DF93EC01EAA1FBA14E
:101D4000E80FF91F1282BC016E5F7F4F81F0FB012B
:101D500001900020E9F73197AF01461B570B8881AE
:101D600099810E945C0E882311F01BA21AA28AA1FD
:101D70009BA1DF91CF9108951F93CF93DF93EC0147
:101D8000162F8AA19BA101968097B8F48AA19BA1E6
:101D90009C012F5F3F4F3BA32AA38C0F9D1FFC018B
:101DA000128321E030E08CA19DA1820F931F9DA39F
:101DB0008CA3DF91CF911F910895CE010E949B0EBD
:101DC000892B21F330E020E0EECFBF92CF92DF925B
:101DD000EF92FF920F931F93CF93DF93EC016A0171
:101DE0008B017B01E40EF51EE016F106D1F0F8013F
:101DF000B1908F018AA19BA10196809760F48AA17E
:101E00009BA19C012F5F3F4F3BA32AA38C0F9D1FDB
:101E1000FC01B282E9CFCE010E949B0E892B79F39F
:101E2000E3CF4CA15DA14C0D5D1D5DA34CA3DF91E3
:101E3000CF911F910F91FF90EF90DF90CF90BF90C7
:101E400008958F929F92AF92BF92CF92DF92EF92BE
:101E5000FF920F931F93CF93DF93CDB7DEB76697B3
:101E60000FB6F894DEBF0FBECDBF6C018E01095EC8
:101E70001F4F78018AE0882E912CA12CB12CCB0128
:101E8000BA01A50194010E941524942F852F605D4D
:101E9000F80162938F01A901692F782F411551052F
:101EA0006105710561F7A7014E1B5F0BBF01C601FC
:101EB0000E94E50E66960FB6F894DEBF0FBECDBF4A
:101EC000DF91CF911F910F91FF90EF90DF90CF9016
:101ED000BF90AF909F908F900895FB0101900020DC
:101EE000E9F73197AF01461B570B0C94E50ECF92E3
:101EF000DF92EF92FF920F931F93CF93DF938C01AA
:101F00006B017A0162E20E94BC0EE601EC0CFD1C42
:101F1000EC16FD0699F06991EBEEF1E0D480DD203E
:101F2000C9F0329683816813F9CF6CE5C8010E942D
:101F3000BC0E6D2DC8010E94BC0EEACF62E2C80142
:101F4000DF91CF911F910F91FF90EF90DF90CF9095
:101F50000C94BC0E6111EECF61E072E0C8010E94EA
:101F60006D0FD6CF2F923F924F925F926F927F92DA
:101F70008F929F92AF92BF92CF92DF92EF92FF9299
:101F80000F931F93CF93DF93CDB7DEB7A1970FB613
:101F9000F894DEBF0FBECDBF7C018B01DC0114962F
:101FA0008C911497863009F471C1E0F4833009F400
:101FB0005DC158F440E0B701823009F42FC168E0F8
:101FC00072E0C8010E946D0FF3C0843009F423C190
:101FD0008530A9F7ED91FC91438150E0BF016C5F22
:101FE0007F4F25C18E3009F443C0E0F48A3009F4F4
:101FF00048C18C3021F7CD90DD90ED90FC90B70179
:10200000A601F7FE0BC06DE2C8010E94BC0E44277A
:102010005527BA014C195D096E097F09C8010E9454
:10202000210F08C1803209F4CDC0803441F66BE540
:10203000C8010E94BC0EF701F080FFEFFF1609F403
:10204000BCC0D80196968D919C916F2D45960E94AB
:10205000D6057C01B8010E94B20FF701F580FFEFB1
:10206000FF1609F4AAC06CE2C8010E94BC0EE5CFBD
:10207000F701C080D180E280F380A7019601C701FB
:10208000B6010E94D72181119ACF20E030E0A9014A
:10209000C701B6010E94D721882379F0A7019601D4
:1020A000C701B6010E944D239B01AC01C701B601D7
:1020B0000E94D721882309F482CF20E030E0A901D3
:1020C000C701B6010E94D72187FF08C06DE2C80191
:1020D0000E94BC0EF7FAF094F7F8F0945E01F7E175
:1020E000AF0EB11CB701A601C5010E94A600EF8C7E
:1020F000F8A0D9A04F89588D698D7A8DC8010E94AA
:10210000210FDD2091F16B8D7C8D8D8D9E8D3E019B
:1021100021E1620E711CCD2C43012AE0222E312CCC
:10212000412C512CCA94AFEFCA1659F0A20191016B
:102130000E941524605DF30162933F01B901CA0159
:10214000F1CF8D2D90E0BC0160957095F401E81BF6
:10215000F90B31978EE2808344275527461B570B96
:10216000680D791DC8010E94E50EE114F10401F12A
:1021700065E6C8010E94BC0EF7FE07C06DE2C8010B
:102180000E94BC0EF194E194F108F5012AE030E0E0
:10219000C701B9010E94ED23805D82937B01672B0B
:1021A000B9F7A5014E1B5F0BBF01C8010E94E50EE8
:1021B000D80194968D919C9140C06DE5C8010E9414
:1021C000BC0EF6CF6BE7C8010E94BC0EF701F08091
:1021D000EE24E394BB24B394FFEFFF16D1F0D801B3
:1021E00096968D919C916F2D45960E94D6056C0117
:1021F000B8010E94B20FF601F580FFEFFF1639F02B
:102200006AE3E11001C06CE2C8010E94BC0EEB243D
:10221000E3CF6DE7D3CF6D917C9141E0CE01019684
:102220000E94AB0B4B815C815F7769817A81C80129
:102230000E94770FF80184A195A1A1960FB6F8949A
:10224000DEBF0FBECDBFDF91CF911F910F91FF90E9
:10225000EF90DF90CF90BF90AF909F908F907F9046
:102260006F905F904F903F902F900895ED91FC916B
:10227000438150E0BF016C5F7F4FC8010E94E50EB3
:10228000D9CF4D915D916D917C91C8CE8C916DE0CF
:1022900072E0811102C062E172E0C8010E946D0F1C
:1022A000C9CFEF92FF920F931F93CF93DF93EC016F
:1022B0007B018A01BA010E94340E81110BC0CE014C
:1022C0000E94160BCE01DF91CF911F910F91FF90CD
:1022D000EF9008951D830C83B701888199810E9436
:1022E0005E26F0CFEF92FF920F931F93CF93DF9371
:1022F000CDB7DEB762970FB6F894DEBF0FBECDBF85
:102300008C01CB01F8011182108213821282158296
:1023100014824AE09E012F5F3F4F7901B9010E946C
:10232000A221F70101900020E9F73197AF014E1982
:102330005F09B701C8010E94511162960FB6F89467
:10234000DEBF0FBECDBFDF91CF911F910F91FF90E8
:10235000EF900895FC01118210821382128215827F
:102360001482FB0101900020E9F73197AF01461B71
:10237000570B0C945111CB01BA010C9488251F9373
:10238000CF93DF9385ED8093BC0080910303909100
:102390000403A0910503B09106030796A11DB11D8A
:1023A00023E0B695A795979587952A95D1F7209123
:1023B000BC0024FD03C010924B0352C040910303A4
:1023C000509104036091050370910603452B462B41
:1023D000472B69F30097A105B10541F02AE22A9540
:1023E000F1F700C00197A109B109E1CF8091020383
:1023F000C1E0C0930103882399F1D091B8001091F6
:10240000BA008091BC008A7B8093BC0060E082E1CE
:102410000E947A0260E083E10E947A0210924B03EC
:10242000C0934D0310924C0361E082E10E947A0256
:1024300061E083E10E947A028091B9008E7F8093EF
:10244000B9008091B9008D7F8093B90088E48093B2
:10245000B80085E48093BC001093BA00D093B80014
:10246000DF91CF911F910895BF92CF92DF92EF92AB
:10247000FF920F931F93CF93DF93EC01198D1F3FB2
:1024800081F0612F45960E94D605FC018081898FDD
:10249000309709F477C014828FEF8583BF01812FB5
:1024A00076C06C0135E0C30ED11CE880F9808F89BD
:1024B000882341F0C6010E940F07E62FF72F182F3F
:1024C000309749F71F89988D191324C0103109F4EA
:1024D00059C0110F6D897E89D701ED91FC91B4E04F
:1024E0001B9FA0011124C616D70609F044C0019015
:1024F000F081E02DBA01C7010995009709F442C0A7
:1025000020E1F601DC0101900D922A95E1F79E8B06
:102510008D8B188F0D891E898F8921E0280F2F8BB5
:10252000E4E08E9FC0011124080F191F90E1B92E1D
:10253000203111F48FE0B82EF6E0BF9EB0011124D7
:10254000D701ED91FC910190F081E02DC701099533
:10255000F80193838283892B09F4B12CD801BC92B2
:1025600011961C92012B71F0C6010E940F07E62FF5
:10257000F72F182F8DCF0480F581E02DC701099525
:10258000009729F681E08A8360E070E08FEFDF91A9
:10259000CF911F910F91FF90EF90DF90CF90BF9060
:1025A00008954F925F926F927F928F929F92AF9217
:1025B000BF92CF92DF92EF92FF920F931F93CF9330
:1025C000DF93EC018B01D42E0E94C6067C01892B7F
:1025D00009F049C0CE010E947806863609F48EC102
:1025E00044F5873229F08B3581F1823209F08DC1B3
:1025F0001D821C828A819B81892B81F4E880F9806D
:10260000F701608171818FE190E00E945B0A009781
:1026100019F421E0F70122839B838A83CE010E9473
:1026200063087C01892BF9F4B801CE010E944209AC
:102630001AC0843709F448C18B3709F46CC08E3650
:1026400009F063C168E072E046C180E4F801848368
:102650000115110519F08FEF80838183D11015C00A
:10266000C5E0EC2EF12CC701DF91CF911F910F91A6
:10267000FF90EF90DF90CF90BF90AF909F908F90A2
:102680007F906F905F904F9008951C86CE010E94BE
:10269000C606009739F56DE5CE010E9492068111BC
:1026A000E2CFDA948D849E84C4010E943412C82E35
:1026B0005B01672B21F4B4E0EB2EF12CD4CFF801B1
:1026C00061816F3F89F0C40145960E94D605FC01E7
:1026D000C582F801C1824D2DB501CE010E94D112F3
:1026E000009721F07C01BFCF8083F4CFCE010E9400
:1026F000C6060097B9F76DE5CE010E9492068111DA
:10270000B2CF6CE2CE010E9492068111CBCF83E062
:10271000E82EF12CA8CF80E2F80184830115110581
:1027200019F08FEF80838183DD2009F499CF1C8617
:10273000CE010E94C6060097A9F66DE7CE010E9461
:102740009206811190CF77247394DA941D821C82B3
:102750008A819B81892B79F4E880F980F701608177
:1027600071818FE190E00E945B0A009711F4F701FC
:1027700072829B838A83CE010E9478068732E9F0B9
:102780008232D9F0CE010E947806F82E0E9405060A
:10279000882309F4BCCF1C866F2DCE010E9435081A
:1027A000CE010E947806F82E0E9405068111F3CF13
:1027B0008A819B81892B41F47ECFCE010E946308E0
:1027C0007C01892B09F04FCFCE010E94C6067C0107
:1027D000892B09F048CF6AE3CE010E949206882334
:1027E00009F495CFEA81FB818C819D81E80FF91F67
:1027F00014826C817D817F772D853E858A819B81C6
:102800000496472F4F77FC2DF078CF2EC42AE894FA
:10281000C7F8AC017C2DC8010E94C20D7C018D84DB
:102820009E84009709F04CC0C4010E943412582EB7
:102830005B01672B09F43FCFC4010E943412682E5C
:10284000962FE92EF72EE114F10409F434CFF501A7
:102850006582F80161816F3F89F1C40145960E944C
:10286000D605FC015582F8016182B501CE010E94B6
:1028700042094D2DB701CE010E94D1127C01892B56
:1028800009F0F1CECE010E94C6067C01892B09F029
:10289000EACE6DE7CE010E9492068111E4CE6CE291
:1028A000CE010E949206882309F431CFCE010E9406
:1028B000C6067C01892B09F449CFD5CE5082D4CFEE
:1028C000B4010E94D409D5CF86E0F801848381E069
:1028D00080836DE072E0CE01DF91CF911F910F9167
:1028E000FF90EF90DF90CF90BF90AF909F908F9030
:1028F0007F906F905F904F900C94A30686E0F80154
:102900008483108262E172E0E6CFCE010E947806F5
:102910005E01FFE0AF0EB11CD12C9A2CCB2C803382
:1029200074F08A3374F42FE3D21699F01C86D39492
:10293000F50181935F01CE010E947806F0CF8B32C2
:1029400091F393ED980F923070F3982F9F7D95340B
:1029500051F3FE01ED0DF11D17868F858B32E1F1EC
:102960006096DD24D3948D3219F0C92DDC2DD12C45
:10297000888190ED980F9A3018F08E3209F0C7CE0A
:1029800060E070E0CB01FE012191A0ED8A2E820E65
:1029900039E0381518F16A3949E97407840749E1C3
:1029A000940730F5AAE0B0E09B01AC010E94FB2245
:1029B000912CB12CA12C24013501409450946094A9
:1029C0007094461657066806790690F0680D791DD2
:1029D0008A1D9B1DEF01D7CF6096C9CF211108C07A
:1029E000DD2059F161307105810550E89507A0F0AF
:1029F000B12CEAE04E2E512C612C712C6115710521
:102A0000F0E88F07910508F1A30192010E941524B7
:102A1000CA01B901B394F2CF2CE0F80124839B01E1
:102A2000AC0188279927DC01821B930BA40BB50B03
:102A300080839183A283B38316CE2AE0F801248396
:102A400060837183828393830ECEDE01299130ED02
:102A5000320F3A3010F4B394F8CF2E32D9F4FD018E
:102A60003196DF013196CC91C053CA3098F46C3C5A
:102A70002CEC72072CE08207910598F7AAE0B0E0F1
:102A80009B01AC010E94FB226C0F711D811D911DE9
:102A9000BA94E7CF2C912F7DD0E0C0E0253409F027
:102AA00052C011962C9111972D32B1F51296CC246B
:102AB000C394FD01D0E0C0E02B2D0B2C000C330B98
:102AC0005AE0952EDF01A19040ED4A0D4A30B0F555
:102AD0009C9EA0019D9E500D1124CA2DAA0CDD0BB9
:102AE000E097C40FD51FAE01420F531F4732510567
:102AF0004CF3CC20C1F060E070E080E090E8D110B1
:102B000003C060E070E0CB012EE0F8012483608315
:102B1000718382839383A7CD2B3219F01196C12C38
:102B2000C8CF1296FCCF60E070E080E89FEFD11034
:102B3000EBCF60E070E080E89FE7E6CFCC2019F0B3
:102B4000D195C195D1092C912111E1CDCB0DD11D8C
:102B5000B7FCDA950E94DC2139EAA32E30E0B32ECF
:102B60001C161D063CF0D195C195D10941E9A42E52
:102B700040E0B42EC12C209791F0C0FF0CC044E07F
:102B8000C49EF0011124EA0DFB1D2591359145915C
:102B900054910E943D22D595C795C394ECCFDD207A
:102BA00009F4B2CF9058B0CF6F927F928F929F92DC
:102BB000AF92BF92CF92DF92EF92FF920F931F934B
:102BC000CF93DF93EC014115510589F490E080E04B
:102BD000DF91CF911F910F91FF90EF90DF90CF90F9
:102BE000BF90AF909F908F907F906F9008958C8151
:102BF00081111AC080E28C83209741F38FEF888384
:102C0000898379014A015B01CE010E94C20D0097C0
:102C1000F9F6C7010E943412682E6B01672B49F444
:102C200010E000E0C801D4CF803281F6209749F748
:102C3000CDCFC7010E943412782E962F092F172F5F
:102C40000115110569F39701B501A401C6010E94A0
:102C50007C0A882329F3F601758269816F3F41F070
:102C6000C70145960E94D605FC0165827982DACFBC
:102C70006882FCCFAF92BF92CF92DF92EF92FF9229
:102C80000F931F93CF93DF935C01DC010D911C9197
:102C90001197E8016A9659F012964D915D916D91E8
:102CA0007C9115979801CE010E94D415EC01C12C9E
:102CB000D12C760188E1C82E82E0D82E92E0E92E50
:102CC000BF2DB078FB2E6894F7F8209751F0B8012B
:102CD000CE010E94D4099801B701A601CE010E943D
:102CE0007C0AD501ED91FC9180E0309719F082814A
:102CF00091E08927DF91CF911F910F91FF90EF9085
:102D0000DF90CF90BF90AF900895AF92BF92CF92D7
:102D1000DF92EF92FF920F931F93CF93DF935C01AB
:102D2000DC010D911C911197E8016A9659F01296F9
:102D30004D915D916D917C9115979801CE010E9406
:102D4000D415EC01C12CD12C76018BE1C82E82E088
:102D5000D82E94E0E92EBF2DB078FB2E6894F7F8BA
:102D6000209751F0B801CE010E94D4099801B70113
:102D7000A601CE010E947C0AD501ED91FC9180E074
:102D8000309719F0828191E08927DF91CF911F91CF
:102D90000F91FF90EF90DF90CF90BF90AF9008958C
:102DA0001F920F920FB60F9211242F933F938F9380
:102DB0009F93AF93BF938091870390918803A091D5
:102DC0008903B0918A033091820323E0230F2D37CA
:102DD00058F50196A11DB11D2093820380938703AE
:102DE00090938803A0938903B0938A03809183030F
:102DF00090918403A0918503B09186030196A11D53
:102E0000B11D8093830390938403A0938503B093B3
:102E10008603BF91AF919F918F913F912F910F901A
:102E20000FBE0F901F90189526E8230F0296A11D44
:102E3000B11DD2CF1F920F920FB60F9211242F9374
:102E40003F934F935F936F937F938F939F93AF9332
:102E5000BF93EF93FF938091760390917703A091B6
:102E60007803B0917903892B8A2B8B2BD1F1909128
:102E70007103E0917203F09173038081892780834D
:102E80008091760390917703A0917803B0917903B4
:102E9000181619061A061B069CF480917603909169
:102EA0007703A0917803B09179030197A109B10943
:102EB0008093760390937703A0937803B09379037C
:102EC000FF91EF91BF91AF919F918F917F916F9102
:102ED0005F914F913F912F910F900FBE0F901F90D8
:102EE0001895809100010E940904EACF1F920F9269
:102EF0000FB60F9211242F933F934F935F936F93CD
:102F00007F938F939F93AF93BF93EF93FF938BE840
:102F100093E00E94F304FF91EF91BF91AF919F91D5
:102F20008F917F916F915F914F913F912F910F9072
:102F30000FBE0F901F9018951F920F920FB60F9211
:102F400011242F938F939F93EF93FF93E0919B0313
:102F5000F0919C038081E091A103F091A20382FD96
:102F60001BC090818091A4038F5F8F732091A50374
:102F7000821741F0E091A403F0E0E557FC4F958FF4
:102F80008093A403FF91EF919F918F912F910F90C8
:102F90000FBE0F901F9018958081F4CF1F920F9253
:102FA0000FB60F9211242F933F934F935F936F931C
:102FB0007F938F939F93AF93BF93EF93FF938091F2
:102FC000B900887F803609F44AC0F0F5883209F4E8
:102FD000A5C018F5803109F499C0B8F4882309F424
:102FE000F5C0883009F492C0FF91EF91BF91AF9185
:102FF0009F918F917F916F915F914F913F912F9111
:103000000F900FBE0F901F901895883109F486C05D
:10301000803251F780934A0314C0803409F49BC076
:1030200040F48033B9F38833F9F680934A0385EC92
:10303000AEC0803509F483C0883509F494C0883463
:1030400099F60E94BF11D0CF883909F48AC038F5AB
:10305000883729F050F4883611F0803729F683E05C
:1030600080934B031092490355C0883809F479C006
:10307000803919F0803809F0B7CF80914903803248
:1030800008F06FC0E091490381E08E0F80934903FF
:103090008091BB00F0E0E75DFC4F80833BC0803B4C
:1030A00039F0D0F4803A09F477C0883A09F09CCF1F
:1030B00084E080934B031092280310922703F0E0E2
:1030C000E0E009958091270381110FC081E0809392
:1030D00027031092070309C0803C09F4A8CF883C5D
:1030E00009F4A5CF883B09F07FCFE091280381E068
:1030F0008E0F80932803F0E0E95FFC4F808180937E
:10310000BB00909128038091270329C08091700310
:103110008093BB0085EC8093BC0066CF90916F03D9
:1031200080916E03981758F5E0916F0381E08E0F40
:1031300080936F03F0E0E25BFC4F8081E9CFE09188
:103140006F0381E08E0F80936F038091BB00F0E0EE
:10315000E25BFC4F808390916F0380916E03981720
:10316000C8F285E8D8CFE0916F0381E08E0F80939D
:103170006F038091BB00F0E0E25BFC4F80838091A5
:103180004D0381115ECF81E080934C0384EA8093EC
:10319000BC0010924B0328CF85EC8093BC001092AA
:1031A0004B0380914903803230F4E0914903F0E011
:1031B000E75DFC4F10826091490370E089E293E083
:1031C000F0E0E0E00995109249030ECF10924A0317
:1031D00038CF0F931F93CF93DF93EC0108811981B0
:1031E0008B819C81009749F0FC01208131813C83D7
:1031F0002B83B8010E94CA09F3CF68817981CE017F
:103200000596DF91CF911F910F910C943B0788E2B7
:1032100094E00E94E91888E494E00E94280B8EE470
:1032200094E00E94E9188EE694E00E94280B8091B9
:103230007D0490917E040E94FF2480917A049091F5
:103240007B0497FD03C060E00C94A80208950F93DF
:103250001F93CF93DF9310928E0310928D0388EE0D
:1032600093E0A0E0B0E080938F0390939003A0934D
:103270009103B09392038DED91E090938C03809332
:103280008B0385EC90E0909398038093970384ECF4
:1032900090E090939A038093990380EC90E0909350
:1032A0009C0380939B0381EC90E090939E0380931A
:1032B0009D0382EC90E09093A00380939F0386ECA3
:1032C00090E09093A2038093A1031092A403109224
:1032D000A5031092A6031092A703109275041092F2
:1032E0007C0410928304109284041092850410923E
:1032F000860481E08093820480937F04109280048E
:1033000092E090938104809374048BE490E0909316
:103310007904809378040E94632490937E048093C0
:103320007D04009709F479C02BE4FC0111922A95E1
:10333000E9F789E190E0909377048093760488E040
:1033400090E090937B0480937A04809175048823A5
:1033500041F061E088E00E94A80260E088E00E94FD
:103360007A02E7EEF0E0E491F0E0EE0FFF1FEB529F
:10337000FF4F859194919093880480938704E9ECA2
:10338000F0E0E491E09389046DEF71E08EE694E063
:103390000E94AA1101E011E010934F0400934E0423
:1033A00010925004109252041092510483E594E05C
:1033B000909364048093630410926504D4E0D093E6
:1033C0006604CFEFC093670410926C04C0936D0441
:1033D0006DEF71E088E494E00E94AA111093290433
:1033E0000093280410922A0410922C0410922B04AB
:1033F0008DE294E090933E0480933D0410923F044C
:10340000D0934004C093410410924604C0934704F3
:10341000DF91CF911F910F9108951092790410922E
:103420007804109277041092760489CFCF93DF93BB
:10343000CDB7DEB7C055D1400FB6F894DEBF0FBE92
:10344000CDBF789484B5826084BD84B5816084BD2D
:1034500085B5826085BD85B5816085BD80916E0032
:10346000816080936E001092810080918100826063
:1034700080938100809181008160809381008091A0
:1034800080008160809380008091B100846080938F
:10349000B1008091B00081608093B00080917A008B
:1034A000846080937A0080917A00826080937A00B1
:1034B00080917A00816080937A0080917A008068A0
:1034C00080937A001092C100E0919B03F0919C03DD
:1034D00082E08083E0919703F09198031082E0915D
:1034E0009903F0919A0380E180831092A303E09105
:1034F0009F03F091A00386E08083E0919D03F0910B
:103500009E03808180618083E0919D03F0919E0302
:10351000808188608083E0919D03F0919E0380818B
:1035200080688083E0919D03F0919E0380818F7D70
:10353000808380E292E00E945A0B80917A049091FD
:103540007B0497FD2EC061E00E94A80260E080919C
:103550007A040E947A0281E08093750460917C0471
:1035600020917D0430917E04633019F1615070E048
:10357000D9F08FEF92E00E94ED23F9014091780499
:1035800050917904CF01821B930B8417950770F437
:103590004081469FC001479F900D11249083319632
:1035A000EDCF10927504DACF60E0E7CF83E080932F
:1035B0007C04409178045091790470E060E080913F
:1035C0007D0490917E040E944E2680917D0490910E
:1035D0007E04892B11F00E94090361E08DE00E94B6
:1035E000A80261E088E00E94A80261E08AE00E94EF
:1035F000A80262E089E00E94A80260E082E00E94E6
:10360000A80260E08AE00E947A028BE893E00E94C0
:10361000D304892B09F465C66DEF71E0CE010196E4
:103620000E94AA110E94850497FD13C08A3091055B
:1036300081F0A2968FAFA297A3961FAEA39741E009
:1036400050E0BE016F597F4FCE0101960E945C0E83
:10365000E9CF80916E0490916F04009709F432C312
:1036600069817A816115710509F42AC3409170045A
:10367000509171042D813E814217530708F420C3F5
:103680000E945E268D819E819093730480937204C4
:103690001E821D82CE0101960E94280BE0906E04CE
:1036A000F0906F0400917204109173040E0D1F1DB1
:1036B0008EE494E00E943C0A8EE494E010926C0444
:1036C0009A8389831C821B821E821D821F82F98637
:1036D000E8861B870A871D869F878E874AE068E6F3
:1036E00074E0CE0101960E94D1128C01892B49F41D
:1036F0008C85882331F080916C0483FF02C003E045
:1037000010E08B819C81009731F0E981FA81608122
:1037100071810E94CA09012B09F0ABC380916C042E
:10372000803209F4E6C290E080E022E432E0CD5C31
:10373000DE4F39832883C353D14038E0CB5CDE4F62
:103740003883C553D140CA5CDE4FA881C653D140EF
:10375000A078BA2FB068CA5CDE4FB883C653D14098
:1037600010E000E0009769F02EE434E0CD5CDE4F1D
:10377000488159816A817B81C353D1400E94C20D27
:103780008C017E01E5EDEE1AEEEFFE0A6DEF71E0C1
:10379000C7010E94AA110115110509F4ADC2C801A3
:1037A0000E948F0DFB01309709F4A6C20190002002
:1037B000E9F73197AF01461B570BC7010E94511122
:1037C0006BE472E0CE01855D9E4F0E941F0E882340
:1037D00009F4FBC288E294E00E943C0A109246047D
:1037E00088E0E9E0F1E0DE01A154BF4F01900D92C5
:1037F0008A95E1F79E0121543F4F7901BB24B39490
:1038000010E000E0F701A1907F016A2D8AE00E949C
:103810007A0262E370E080E090E00E94D50389E0E4
:103820000E945102BC01CE018D519F4F0E94721126
:10383000B801CE018F599F4F0E94721162E772E06A
:10384000CE0101960E94AA11BE016F597F4FCE0191
:1038500001960E94880E6C0143E050E06AE772E036
:103860000E945C0E811103C0C6010E94160BBE01AE
:103870006D517F4FC6010E94880E0E94470BCE01FA
:1038800001960E94280BCE018F599F4F0E94280B52
:10389000CE018D519F4F0E94280B89E00E9451025A
:1038A000A816190679F08EE792E00E94360B19A24D
:1038B00080E3800F88A3CE0180960E94360B0E9481
:1038C000430BB12C62E370E080E090E00E94D503EE
:1038D0000F5F1F4F0830110509F094CFBB2009F48A
:1038E00037C380E992E00E945A0B88E294E09A8301
:1038F000898383EA92E09C838B8384E08D838E812D
:10390000807880688E83CE0101960E943A168DEFF2
:1039100091E00E945A0B992493940FEF1FEFD12C42
:10392000C12CE0E48E2E80927C0080917A0080642D
:1039300080937A0080917A0086FDFCCFE090780039
:10394000F0907900B701CE018D519F4F0E94721106
:10395000B601CE018F599F4F0E9472116DEB72E03C
:10396000CE0101960E94AA11BE016F597F4FCE0170
:1039700001960E94880E5C0142E050E06BE772E025
:103980000E945C0E811103C0C5010E94160BBE018E
:103990006D517F4FC5010E94880E0E94470BCE01DA
:1039A00001960E94280BCE018F599F4F0E94280B31
:1039B000CE018D519F4F0E94280BC114D10409F4F0
:1039C000DEC2E01AF10AF7FE03C0F194E194F108B7
:1039D000FBE0EF16F1040CF0D4C265E070E080E08B
:1039E00090E00E94D5032FEFC21AD20A3AE0C31624
:1039F000D10409F098CF88E294E09A83898389EC16
:103A000092E09C838B8386E08D838E8180788068B2
:103A10008E83CE010196992009F4B5C204361105B2
:103A20000CF0B1C20E943A168DEF91E00E945A0B41
:103A300082E00E945102892B09F0A8C288E294E03A
:103A40009A83898380ED92E09C838B8382E08D83CF
:103A50008E81807880688E83CE0101960E943A160E
:103A600083ED92E00E945A0B8EE5E1E1F1E0DE0188
:103A7000AF59BF4F01900D928A95E1F780E6EFE6CE
:103A8000F1E0DE01119601900D928A95E1F7CE01E9
:103A90000196C95CDE4F99838883C753D140DE010C
:103AA000AF59BF4FC35CDE4FB983A883CD53D1401C
:103AB000FE01E15AFF4FCF5CDE4FF983E883C1532B
:103AC000D140C95CDE4F28813981C753D140CF5CDA
:103AD000DE4F88819981C153D1402817390709F4F5
:103AE000E1C3D9016D917D91C95CDE4FB983A88393
:103AF000C753D14088EE93E00E940124C15BDE4FA2
:103B000079836883CF54D140C35CDE4FE881F9816B
:103B1000CD53D14021903190C35CDE4FF983E883CF
:103B2000CD53D140CB01092E000CAA0BBB0BC75CB7
:103B3000DE4F88839983AA83BB83C953D140211464
:103B4000310409F421C380910001833009F031C2AE
:103B5000E8E6F0E0149117FD17C361E083E00E94EE
:103B6000A802112319F0123009F028C34101B12C29
:103B7000A12C60E072E18AE790E0A50191010E942A
:103B8000372429013A017A016901F1E0CF1AD108FD
:103B9000E108F1082FEFC216D104E104F10409F0A5
:103BA0000CF4C5C260E472E48FE090E0A5019101DD
:103BB0000E94372469017A0181E0C81AD108E1081E
:103BC000F108123009F06AC282E09FEFC916D104F1
:103BD000E104F10409F00CF46CC060E970ED83E0DD
:103BE00090E0A50191010E94372469017A01A1E0CA
:103BF000CA1AD108E108F10883E0BFEFCB16D1045F
:103C0000E104F10409F00CF454C068E478EE81E0BA
:103C100090E0A50191010E94372469017A0181E0B9
:103C2000C81AD108E108F10884E09FEFC916D10451
:103C3000E104F104F1F1ECF164E274EF80E090E072
:103C4000A50194010E94372469017A0181E0C81A14
:103C5000D108E108F10885E03FEFC316D104E10483
:103C6000F10439F130F162E17AE780E090E0A501FA
:103C700094010E94372469017A01F1E0CF1AD1083A
:103C8000E108F10886E02FEFC216D104E104F10447
:103C900081F078F0730162018AE0F594E794D7949B
:103CA000C7948A95D1F721E0C21AD108E108F1083A
:103CB00087E09091B100987F892B8093B1003EC23C
:103CC0000E94FF2489819A8190936F0480936E04EF
:103CD0008B819C8190937104809370048D819E816F
:103CE00090937304809372041A8219821C821B823F
:103CF000CFCC88E694E019CDC95FDE4FF982E88227
:103D0000C750D140C75DDE4F19821882C952D140D9
:103D1000C7010E94160B84E2FE01E95FFE4FDE013F
:103D2000AD51BF4F01900D928A95E1F784E2FE01FB
:103D3000ED51FF4FDE01A154BF4F01900D928A95C6
:103D4000E1F784E2FE01E154FF4FDE01AF59BF4FBE
:103D500001900D928A95E1F784E2FE01EF59FF4F41
:103D6000DE01119601900D928A95E1F71EA21DA227
:103D7000CE018F599F4F0E949B0E8EE494E098A72E
:103D80008FA3CE0181549F4F0E949B0E01151105F8
:103D9000A9F0BE016F5F7F4FC8010E94B20FCE0134
:103DA00001960E949B0ECE018D519F4F0E949B0E4B
:103DB000CE01895F9E4F0E949B0E02CD68E072E0AB
:103DC000CE0101960E946D0FEACF63E572E0CE014D
:103DD000855D9E4F0E941F0E811189C068E572E0CB
:103DE000CE01855D9E4F0E941F0E81114FC06CE574
:103DF00072E0CE01855D9E4F0E941F0E8823A1F1C7
:103E000088E294E00E943C0A1092460488E294E022
:103E10009A83898380E692E09C838B8385E08D83FF
:103E20008E81807880688E83CE0101960E943A163A
:103E300082E494E0C15CDE4F99838883CF53D14004
:103E4000A8E2B4E0CF5BDE4FB983A883C154D14070
:103E5000C15CDE4F688179818A819B81CF53D140DB
:103E60000E94650D0E94430BCE01855D9E4F0E940E
:103E7000280B80E090E0892B09F4C7CB0E94DF0477
:103E8000882309F4C2CB0E940000BFCB88E294E0F3
:103E90000E943C0A1092460488E294E09A83898347
:103EA00086E692E09C838B8385E08D838E8180788B
:103EB00080688E83CE0101960E943A16E2E4F4E017
:103EC000CD5BDE4FF983E883C354D14028E234E070
:103ED000CB5BDE4F39832883C554D140CD5BDE4FA9
:103EE000688179818A819B81C354D140B9CF88E2AE
:103EF00094E00E943C0A1092460488E294E09A837F
:103F000089838CE692E09C838B8385E08D838E8110
:103F1000807880688E83CE0101960E943A1682E4F2
:103F200094E0C95BDE4F99838883C754D140A8E2EF
:103F3000B4E0C75BDE4FB983A883C954D140C95BE5
:103F4000DE4F688179818A819B81C754D14088CFB7
:103F500088EA92E00E945A0B88E294E09A8389836F
:103F600083EA92E09C838B8384E08D838E818078CA
:103F700080688E83CE0101960E948516C8CC870189
:103F80002CCD912C2ACD0E9485164ECD88E294E04E
:103F90009A83898380ED92E09C838B8382E08D837A
:103FA0008E81807880688E83CE0101960E9485166E
:103FB00057CD8F3F09F0E8C083E080930001E8E629
:103FC000F0E014911F3F09F4DFC0113029F150F0E7
:103FD000123009F440C017FDD7C061E083E00E94B1
:103FE000A802C1CD14BC15BC84B5826084BD85B562
:103FF000816085BDE2EEF0E08491E82FF0E0EE0F05
:10400000FF1FEB52FF4F85919491E4ECF0E0849117
:104010008093750310E0A1CD109280001092810072
:10402000809181008860809381008091810081600F
:1040300080938100E2EEF0E08491E82FF0E0EE0F53
:10404000FF1FEB52FF4F85919491E4ECF0E08491D7
:104050008093740382CD1092B0001092B1008091D1
:10406000B00082608093B0008091B1008160809345
:10407000B100E2EEF0E08491E82FF0E0EE0FFF1FD8
:10408000EB52FF4F85919491909373038093720349
:10409000E4ECF0E08491809371035FCDEFEFCE16F6
:1040A000D104E104F10409F00CF486C068E478EE70
:1040B00081E090E0A50191010E94372469017A0115
:1040C000F1E0CF1AD108E108F10884E01111C4CD64
:1040D00083E0EFEFCE16D104E104F10459F154F17D
:1040E00062E17AE780E090E0A50194010E94372424
:1040F00069017A01A1E0CA1AD108E108F10884E057
:10410000BFEFCB16D104E104F104A1F098F07301E4
:1041100062019AE0F594E794D794C7949A95D1F701
:10412000F1E0CF1AD108E108F10885E003C081E091
:104130001111BFCD95B5987F892B85BDC75CDE4F2A
:1041400088819981AA81BB81C953D1402FEF3FEF6C
:10415000A901892B8A2B8B2B09F070C0113009F42F
:104160007FC0123009F48EC011110EC0C7BC20935D
:104170007E0330937F0340938003509381038091AB
:104180006E00826080936E00C75CDE4F688179812B
:104190008A819B81C953D1400E94DE2126E636E602
:1041A00046EA5FE30E943D220E94B9230E94D503A4
:1041B00083E00E94090485CC82E0BACFB12CA12C07
:1041C00060E072E18AE790E0A50191010E94372446
:1041D00069017A0191E0C91AD108E108F10891E07A
:1041E000C114D104A1E0EA06F10484F068E478EE99
:1041F00081E090E0A50191010E94372469017A01D4
:10420000B1E0CB1AD108E108F10893E0113009F0D0
:1042100095CF80918100887F892B80938100C75C36
:10422000DE4F88819981AA81BB81C953D1402FEF8C
:104230003FEFA901892B8A2B8B2B91F09101220F43
:10424000331FC15BDE4FA881B981CF54D1400E949A
:10425000562428EE33E040E050E00E9415247ECF43
:10426000D0928900C092880020937A0330937B0318
:1042700040937C0350937D0380916F008260809314
:104280006F0082CFC092B300209376033093770300
:1042900040937803509379038091700082608093FB
:1042A000700072CF68EE73E080E090E00E94D5036A
:1042B000A2E4B4E0C55BDE4FB983A883CB54D14000
:1042C000E8E2F4E0C35BDE4FF983E883CD54D140EC
:1042D000C55BDE4F688179818A819B81CB54D14057
:1042E000BFCD60E070E08FEF90E00E94800768EC47
:1042F00070E080E090E00E94D50360E07FEF80E016
:1043000090E00E94800768EC70E080E090E00E94FE
:10431000D50367E279E485EF90E00E94800768ECBE
:1043200070E080E090E00E94D5036FEF70E080E0E5
:1043300090E00E94800768EC70E080E090E00E94CE
:10434000D50397CDBB274A3031F4992322F4BDE23F
:10435000909581959F4F0C94AE21BB27FB0155276B
:10436000AA27880F991FAA1FA41710F0A41B8395D2
:104370005051B9F7A05DAA3308F0A95DA193009749
:1043800079F7B111B1931192CB010C94C721DC01E3
:10439000FC01672F71917723E1F7329704C07C917C
:1043A0006D9370836291AE17BF07C8F308950E94A2
:1043B000192208F481E00895E89409C097FB3EF4BF
:1043C00090958095709561957F4F8F4F9F4F992362
:1043D000A9F0F92F96E9BB279395F69587957795E0
:1043E0006795B795F111F8CFFAF4BB0F11F460FFA0
:1043F0001BC06F5F7F4F8F4F9F4F16C0882311F0F8
:1044000096E911C0772321F09EE8872F762F05C00B
:10441000662371F096E8862F70E060E02AF09A95A6
:10442000660F771F881FDAF7880F9695879597F99B
:104430000895990F0008550FAA0BE0E8FEEF161635
:104440001706E807F907C0F012161306E407F50788
:1044500098F0621B730B840B950B39F40A2661F0FC
:10446000232B242B252B21F408950A2609F4A1409F
:10447000A6958FEF811D811D08950E9450220C94F6
:10448000C1220E94B32238F00E94BA2220F0952364
:1044900011F00C94AA220C94B02211240C94F52251
:1044A0000E94D22270F3959FC1F3950F50E0551FE3
:1044B000629FF001729FBB27F00DB11D639FAA2779
:1044C000F00DB11DAA1F649F6627B00DA11D661FC8
:1044D000829F2227B00DA11D621F739FB00DA11DE9
:1044E000621F839FA00D611D221F749F3327A00DA3
:1044F000611D231F849F600D211D822F762F6A2F3F
:1045000011249F5750409AF0F1F088234AF0EE0FA3
:10451000FF1FBB1F661F771F881F91505040A9F7D0
:104520009E3F510580F00C94AA220C94F5225F3F27
:10453000E4F3983ED4F3869577956795B795F7950C
:10454000E7959F5FC1F7FE2B880F911D9695879584
:1045500097F9089597F99F6780E870E060E0089503
:104560009FEF80EC089500240A941616170618068B
:104570000906089500240A94121613061406050667
:104580000895092E0394000C11F4882352F0BB0FF8
:1045900040F4BF2B11F460FF04C06F5F7F4F8F4F5B
:1045A0009F4F089557FD9058440F551F59F05F3F96
:1045B00071F04795880F97FB991F61F09F3F79F045
:1045C00087950895121613061406551FF2CF4695C7
:1045D000F1DF08C0161617061806991FF1CF869549
:1045E0007105610508940895E894BB27662777272D
:1045F000CB0197F908950E943D23A59F900DB49F8C
:10460000900DA49F800D911D112408952F923F922B
:104610004F925F926F927F928F929F92AF92BF92D2
:10462000CF92DF92EF92FF920F931F93CF93DF937E
:10463000CDB7DEB7CA1BDB0B0FB6F894DEBF0FBEDB
:10464000CDBF09942A88398848885F846E847D8428
:104650008C849B84AA84B984C884DF80EE80FD802A
:104660000C811B81AA81B981CE0FD11D0FB6F894A0
:10467000DEBF0FBECDBFED010895A29FB001B39F75
:10468000C001A39F700D811D1124911DB29F700D5B
:10469000811D1124911D08955058BB27AA270E94FF
:1046A00064230C94C1220E94B32238F00E94BA22E3
:1046B00020F039F49F3F19F426F40C94B0220EF444
:1046C000E095E7FB0C94AA22E92F0E94D22258F32E
:1046D000BA17620773078407950720F079F4A6F5E7
:1046E0000C94F4220EF4E0950B2EBA2FA02D0B01A2
:1046F000B90190010C01CA01A0011124FF27591B27
:1047000099F0593F50F4503E68F11A16F040A22F2C
:10471000232F342F4427585FF3CF4695379527959D
:10472000A795F0405395C9F77EF41F16BA0B620B9C
:10473000730B840BBAF09150A1F0FF0FBB1F661FE3
:10474000771F881FC2F70EC0BA0F621F731F841F26
:1047500048F4879577956795B795F7959E3F08F04C
:10476000B0CF9395880F08F09927EE0F979587950E
:1047700008950E94DA2288F09F5798F0B92F992760
:10478000B751B0F0E1F0660F771F881F991F1AF03C
:10479000BA95C9F714C0B13091F00E94F422B1E08B
:1047A00008950C94F422672F782F8827B85F39F08A
:1047B000B93FCCF3869577956795B395D9F73EF4D5
:1047C00090958095709561957F4F8F4F9F4F08957D
:1047D0000E94192208F48FEF0895AA1BBB1B51E118
:1047E00007C0AA1FBB1FA617B70710F0A61BB70B61
:1047F000881F991F5A95A9F780959095BC01CD0106
:10480000089597FB072E16F4009407D077FD09D082
:104810000E94ED2307FC05D03EF4909581959F4FB3
:104820000895709561957F4F0895A1E21A2EAA1BF5
:10483000BB1BFD010DC0AA1FBB1FEE1FFF1FA21750
:10484000B307E407F50720F0A21BB30BE40BF50B4D
:10485000661F771F881F991F1A9469F760957095D6
:10486000809590959B01AC01BD01CF010895052E67
:1048700097FB1EF400940E944E2457FD07D00E941F
:10488000152407FC03D04EF40C944E24509540950B
:10489000309521953F4F4F4F5F4F089590958095EC
:1048A000709561957F4F8F4F9F4F08950E943D23D4
:1048B000B7FF0895821B930B0895EE0FFF1F05901D
:1048C000F491E02D09940F931F93CF93DF938230DF
:1048D000910510F482E090E0E0918C04F0918D0459
:1048E00030E020E0B0E0A0E0309799F421153105E8
:1048F00009F44AC0281B390B24303105D8F58A81C8
:104900009B816115710589F1FB0193838283FE010F
:1049100011C0408151810281138148175907E0F08D
:104920004817590799F4109761F012960C93129753
:1049300013961C933296CF01DF91CF911F910F9167
:10494000089500938C0410938D04F4CF2115310544
:1049500051F04217530738F0A901DB019A01BD015C
:10496000DF01F801C1CFEF01F9CF90938D0480935F
:104970008C04CDCFFE01E20FF31F8193919322505F
:10498000310939832883D7CF20918A0430918B0451
:10499000232B41F4209105013091060130938B04C3
:1049A00020938A04209103013091040121153105DF
:1049B00041F42DB73EB74091070150910801241BE7
:1049C000350BE0918A04F0918B04E217F307A0F411
:1049D0002E1B3F0B2817390778F0AC014E5F5F4F55
:1049E0002417350748F04E0F5F1F50938B044093F8
:1049F0008A04819391939FCFF0E0E0E09CCFCF9326
:104A0000DF930097E9F0FC01329713821282A091A4
:104A10008C04B0918D04ED0130E020E01097A1F4FA
:104A200020813181820F931F20918A0430918B0461
:104A30002817390709F061C0F0938B04E0938A04CA
:104A4000DF91CF910895EA01CE17DF07E8F54A819B
:104A50005B819E0141155105B1F7E901FB83EA83B2
:104A600049915991C40FD51FEC17FD0761F480815E
:104A700091810296840F951FE90199838883828131
:104A800093819B838A83F0E0E0E012968D919C9164
:104A900013970097B9F52D913C911197CD0102968E
:104AA000820F931F20918A0430918B0428173907B5
:104AB00039F6309751F510928D0410928C04B09312
:104AC0008B04A0938A04BCCFD383C28340815181DD
:104AD000840F951FC817D90761F44E5F5F4F888117
:104AE0009981480F591F518340838A819B81938309
:104AF00082832115310509F0B0CFF0938D04E09346
:104B00008C049ECFFD01DC01C0CF13821282D7CF6F
:104B1000B0E0A0E0EEE8F5E20C9408238C010097E9
:104B200051F4CB010E9463248C01C801CDB7DEB7DC
:104B3000E0E10C942423FC01E60FF71F9C012250B6
:104B40003109E217F30708F49DC0D901CD91DC913A
:104B50001197C617D70798F0C530D10530F3CE01AD
:104B600004978617970708F3C61BD70B2297C193A4
:104B7000D1936D937C93CF010E94FF24D6CF5B012C
:104B8000AC1ABD0A4C018C0E9D1EA0918C04B091F4
:104B90008D04512C412CF12CE12C109731F5809192
:104BA0008A0490918B048815990509F05CC046161B
:104BB000570608F058C080910301909104010097B6
:104BC00041F48DB79EB74091070150910801841BB5
:104BD000950BE817F90708F055C0F0938B04E093A4
:104BE0008A04F90171836083A0CF8D919C91119704
:104BF00012966C90129713967C901397A815B9058E
:104C000059F56C0142E0C40ED11CCA14DB0420F13A
:104C1000AC014A195B09DA011296159780F062829D
:104C2000738251834083D9016D937C93E114F10425
:104C300071F0D7011396FC93EE93129776CF2296DC
:104C40008C0F9D1FF90191838083F301EFCFF093C7
:104C50008D04E0938C0469CF4816590608F42C01A2
:104C60007D01D3019ACFCB010E9463247C01009780
:104C700049F0AE01B8010E944526C8010E94FF24F8
:104C8000870153CF10E000E050CFFB01DC0102C0F0
:104C900001900D9241505040D8F70895DC0101C0B9
:104CA0006D9341505040E0F70895FB01DC018D9178
:104CB000019080190110D9F3990B0895FB01DC01D3
:104CC00001900D920020E1F7089510E0CBE7D0E0CD
:104CD00004C0FE010E945D242196CC37D107C9F79C
:044CE000F894FFCF76
:104CE400FFD30100008E04800001000101000001D7
:104CF400004D0A4D0A00004D0A00002D084D0A001F
:104D040000400C000000000000200600000000002D
:104D1400002D080000000020060000000027050008
:104D2400000000E0060000B80700004907E00600A4
:104D34000020064D0A400CC00D0000EA0A400C0099
:104D4400004D0A00002D082D09B807000000000CD2
:104D5400000C000C000C000C000C000C000C000CEF
:104D6400000C000C000C000C000C000C000C000CDF
:104D7400000C000C000C000C000C000C000C000CCF
:104D8400000C000C000C000C000C000C000C0009C2
:104D940000090009000C000C000C000C000C000CB5
:104DA400000C000C000C000C000C000C000C0000AB
:104DB400000000330B300BBB11000000001505355B
:104DC4000462046205D3047104C5042F2F2727222B
:104DD400225C5C6208660C6E0A720D7409000D0A8E
:104DE400005C7530303030006E756C6C0074727518
:104DF400650066616C7365004F4B004661696C0029
:104E040053657269616C20696E696369616C697A62
:104E140061646F20656E20443020792044312E2E49
:104E24002E0046756E6374696F6E00746573744109
:104E34006C6C006E656F7000616463006469670088
:104E44004361736534004361736533004361736583
:104E5400320056616C6F72205B005D3A200045722F
:104E6400726F7220656E20C3AD6E64696365200045
:104E740053454355454E43494120434F52524543C0
:104E84005441006770696F0053454355454E43498B
:104E94004120494E434F525245435441004C6563AF
:104EA400747572612041302000616E616C6F67001F
:104EB4007377003D3D3D3D20456A6563756369C375
:104EC400B36E20646520727574696E6120656E200E
:104ED40042757A7A6572204435203D3D3D3D00009F
:00000001FF
