:100000000C945E000C9486000C9486000C94860080
:100010000C9486000C9486000C9486000C94860048
:100020000C9486000C9486000C9486000C94860038
:100030000C9486000C9486000C9486000C94860028
:100040000C943F030C9486000C9486000C9486005C
:100050000C9486000C9486000C9486000C94860008
:100060000C9486000C9486000000000024002700F9
:100070002A0000000000250028002B0004040404CE
:100080000404040402020202020203030303030342
:10009000010204081020408001020408102001021F
:1000A00004081020000000080002010000030407FB
:1000B00000000000000000006B06080711241FBEAE
:1000C000CFEFD8E0DEBFCDBF11E0A0E0B1E0E0E6C9
:1000D000F5E102C005900D92AA31B107D9F721E0F0
:1000E000AAE1B1E001C01D92A135B207E1F710E02D
:1000F000CDE5D0E004C02197FE010E947109CC3506
:10010000D107C9F70E9489030C94A30A0C9400003C
:100110008F929F92AF92BF92CF92DF92EF92FF9217
:10012000CF932091390130913A0182179307E8F576
:100130004B01AA24BB24C82DC52ED62EE72EFF24A2
:10014000BC2DA42F20913F01222361F0829E40010B
:100150001124C92D2C9D60011124BD2D249FF00177
:100160001124AF2FE0914501E0904001F090410152
:1001700030914201E31323C09C01220F331F820FF1
:10018000931F8E0D9F1DE0914201E80FF92FF11D85
:10019000C083E0914301E80FF92FF11DB083209156
:1001A0004401820F911DFC01A083CF91FF90EF903D
:1001B000DF90CF90BF90AF909F908F900895880F61
:1001C000991F880F991F8E0D9F1D472F5527662752
:1001D0007727222349F030E0249F7001259FF00CFF
:1001E000349FF00C11244F2DE80FF92FF11D40839F
:1001F000CACF90E0FC01EC55FF4F2491FC01E05781
:10020000FF4F3491FC01E458FF4FE491EE23C9F015
:10021000222339F0233001F1A8F4213019F12230E2
:1002200029F1F0E0EE0FFF1FEE58FF4FA591B491BA
:100230008FB7F894EC91611126C030953E233C9322
:100240008FBF08952730A9F02830C9F0243049F72E
:10025000809180008F7D03C0809180008F77809394
:100260008000DFCF84B58F7784BDDBCF84B58F7DF1
:10027000FBCF8091B0008F778093B000D2CF809178
:10028000B0008F7DF9CF3E2BDACFCF93DF9390E094
:10029000FC01E057FF4F249184589F4FFC0184914B
:1002A0008823D1F090E0880F991FFC01E859FF4F97
:1002B000A591B491FC01EE58FF4FC591D491611105
:1002C0000EC09FB7F8948C91E22FE0958E238C930B
:1002D0002881E223E8839FBFDF91CF9108958FB7F4
:1002E000F894EC91E22BEC938FBFF6CF3FB7F894E4
:1002F0008091330190913401A0913501B091360184
:1003000026B5A89B05C02F3F19F00196A11DB11D70
:100310003FBFBA2FA92F982F8827BC01CD01620FAC
:10032000711D811D911D42E0660F771F881F991F67
:100330004A95D1F708950F931F93CF93DF93CDB7CD
:10034000DEB729970FB6F894DEBF0FBECDBF809100
:10035000400190914101892B09F47CC00E947601F3
:1003600000914601109147012091480130914901C7
:10037000601771078207930740F4609346017093FA
:1003800047018093480190934901009146011091E3
:1003900047012091480130914901601B710B820B8C
:1003A000930B6C32714081059105C0F2F8948091F5
:1003B0003B0190913C019A838983E0914001F09147
:1003C0004101DF0111968081898790913701E09189
:1003D0004A01F0914B0180914C01992309F445C0E9
:1003E0009081982B98879081809589238F838F8126
:1003F0008C8388E08B8358856F8149853B812C8174
:1004000089819A81508347FD252F3A952083262F95
:1004100039F0441F00C000006083000000C0F2CF2C
:1004200038E04D9160830000019761F7F0934B0134
:10043000E0934A0149873B832C839A83898378948C
:100440000E947601609346017093470180934801B2
:100450009093490129960FB6F894DEBF0FBECDBF29
:10046000DF91CF911F910F9108959081982B9887DC
:100470009081809589238F838F818E8388E08D83FF
:1004800058856F8149853D812E8189819A8150836C
:1004900047FD252F00C000C0208300C000C000C061
:1004A00000C000C060830000262F3A9541F0441F31
:1004B000000000C000C000C000C000C0E8CF38E0AD
:1004C0004D9100C0608300C0019709F7F0934B0184
:1004D000E0934A0149873D832E83AFCF8F929F924D
:1004E000AF92BF92CF92DF92EF92FF926B017C01AD
:1004F0000E9476014B015C01C114D104E104F104B6
:10050000B9F00E947601681979098A099B09683E49
:1005100073408105910580F321E0C21AD108E108FA
:10052000F10888EE880E83E0981EA11CB11CE4CF70
:10053000FF90EF90DF90CF90BF90AF909F908F9003
:100540000895AB01BC0190E080E00E9488000E9409
:100550009B0162E370E080E090E00C946E02282F33
:100560002095253598F4822F880F880F622F681BFD
:100570009FEF960F692F70E090E080E0CB01772726
:100580006627322F330F230F622B08952A3A88F4FF
:100590002555622F660F620F70E090E080E0982F83
:1005A000872F762F6627322F330F330F231B2150CF
:1005B000EBCF2A5A822F880F880F322F381B3150E9
:1005C000622F660F620F70E090E080E0CB0177272A
:1005D0006627732B0895E7E3F1E04481558170E0CD
:1005E00060E0818592850C949C0A8F929F92AF92D5
:1005F000BF92CF92DF92EF92FF920F931F93CF9310
:10060000DF938C014A015B010E94EB02E801F12CAF
:10061000E12C04E010E0670184E0C80ED11C888161
:1006200090E0002E02C0959587950A94E2F780FF2E
:1006300007C0B501A401C601801B910B0E94880070
:100640000150110960F7219685E0E80EF11C89E15F
:10065000E816F104F1F60E949B0168EE73E080E079
:1006600090E0DF91CF911F910F91FF90EF90DF907D
:10067000CF90BF90AF909F908F900C946E021F927E
:100680000F920FB60F9211242F933F938F939F9346
:10069000AF93BF9380912F0190913001A0913101D0
:1006A000B091320130912E0123E0230F2D3758F500
:1006B0000196A11DB11D20932E0180932F019093CF
:1006C0003001A0933101B0933201809133019091B8
:1006D0003401A0913501B09136010196A11DB11DE3
:1006E0008093330190933401A0933501B093360188
:1006F000BF91AF919F918F913F912F910F900FBE1E
:100700000F901F90189526E8230F0296A11DB11D8A
:10071000D2CFCF93DF9300D000D01F92CDB7DEB7FA
:10072000789484B5826084BD84B5816084BD85B5CC
:10073000826085BD85B5816085BD80916E008160D8
:1007400080936E001092810080918100826080937E
:100750008100809181008160809381008091800080
:100760008160809380008091B10084608093B100AB
:100770008091B00081608093B00080917A008460A5
:1007800080937A0080917A00826080937A008091D1
:100790007A00816080937A0080917A0080688093EB
:1007A0007A001092C10061E08DE00E9445018091C5
:1007B0003D0190913E0197FD2EC061E00E944501F0
:1007C00060E080913D010E94F90081E08093380152
:1007D00060913F01633041F120914001309141012E
:1007E0006150E1F070E08FEF92E00E944909F90159
:1007F00040913B0150913C01CF01821B930B841728
:10080000950778F44081469FC001479F900D1124C1
:1008100090833196EDCF10923801DACF70E060E02E
:10082000E6CF83E080933F010E94EB020E949B0190
:1008300005E0202E312C61E08DE00E94F90010E0EF
:1008400000E0802F0E94AF02AB01BC0190E080E08D
:100850000E9488000E949B016AE070E080E090E0C6
:100860000E946E020F5F1F4F011521E0120749F72A
:1008700064EF71E080E090E00E946E0260E08DE045
:100880000E94F90060E070E08FEF90E00E94A1020A
:1008900060E07FEF80E090E00E94A1026FEF70E0E7
:1008A00080E090E00E94A10264EF71E080E090E0BF
:1008B0000E946E0261E08DE00E94F9001AE0E12ED4
:1008C000F12C10E000E00E94EB020115110541F44B
:1008D0004FE75FE76FE770E090E080E00E948800FC
:1008E0000E949B0162E370E080E090E00E946E0253
:1008F0000F5F1F4F0330110531F741E0E41AF10893
:1009000001F764EF71E080E090E00E946E0260E029
:100910008DE00E94F900B8E0EB2EF12C0E94EB0272
:1009200010E000E0C801B1010E945D09FC01EE0F7A
:10093000FF1FEE0FFF1FE65EFE4F40815181628177
:10094000738190E080E00E9488000F5F1F4F0730A6
:10095000110541F70E949B016CE370E080E090E09C
:100960000E946E0281E0E81AF108C1F664EF71E0BE
:1009700080E090E00E946E0261E08DE00E94F9004C
:100980008FB7F89440902F01509030016090310162
:10099000709032018FBF2FB7F89480912F01909102
:1009A0003001A0913101B09132012FBF8419950916
:1009B000A609B709883B9B40A105B10508F03AC1DB
:1009C0008091390190913A01C12CD12C7601892B6B
:1009D00009F460C090914501E091420120914001ED
:1009E0003091410180903F01D901A90FB11D8C9137
:1009F000A0914301A20FB32FB11D4C914983A09147
:100A00004401A20FB32FB11DDC909E13A9C0882012
:100A100009F496C0912CB12CA12C682F70E0762F90
:100A20006627072E000C880B990BA50194010E94E4
:100A3000EE07D901992788278A839B83AC83BD83DE
:100A40009981692F70E0762F6627072E000C880B9E
:100A5000990BA50194010E94EE07EE24F22E032FBC
:100A6000142F8A819B81AC81BD81E82AF92A0A2B47
:100A70001B2B6D2D70E0762F6627072E000C880B40
:100A8000990BA50194010E94EE0767017801C22A23
:100A9000D32AE42A6E2D70E090E080E00E94500896
:100AA00027ED33EA40E75FE30E94B4080E941F0885
:100AB000862E912CB12CA12C5401992488246D2DC3
:100AC00070E090E080E00E94500827ED33EA40E7B4
:100AD0005FE30E94B4080E941F08962A6C2D70E004
:100AE00090E080E00E94500827ED33EA40E75FE3A2
:100AF0000E94B4080E941F08C401862BAC01B501F6
:100B000090E080E00E9488000E9464070E946407D1
:100B10002FEF30E040E050E00E94BC07862F0E949B
:100B2000AF02AB01BC0190E080E00E9488000E940F
:100B30009B016EE170E080E090E00E946E022BCF9E
:100B40009981292F30E050E040E0542F432F322F7D
:100B50002227482BDA01C9018D296C017D019ACF2A
:100B6000E20FF32FF11DC080882009F455C0912CAD
:100B7000B12CA12C682F70E0762F6627072E000C71
:100B8000880B990BA50194010E94EE07122F0027F4
:100B9000FF24EE246C2D70E0762F6627072E000CC4
:100BA000880B990BA50194010E94EE07A901332738
:100BB0002227E22AF32A042B152B6D2D70E0762FC5
:100BC0006627072E000C880B990BA50194010E9443
:100BD000EE07D801C701822B932BA42BB52B8A8358
:100BE0009B83AC83BD839981692F70E0762F662744
:100BF000072E000C880B990BA50194010E94EE07AB
:100C0000CC24D22EE32EF42E8A819B81AC81BD812F
:100C1000C82AD92AEA2A3ECF2C2D30E050E040E005
:100C2000A90133272227582B2D2969017A0199819F
:100C3000D92A30CF64EF71E080E090E00E946E022C
:100C400060E08DE00E94F9000E94EB024FEF50E05F
:100C5000BA0190E080E00E9488000E949B0162E35C
:100C600070E080E090E00E946E0264EF71E080E04E
:100C700090E00E946E0240E05FEF6FEF70E08AE06C
:100C800091E00E94F50240E050E06FEF70E085E0F7
:100C900091E00E94F50240E05FEF60E070E080E0EC
:100CA00091E00E94F50264EF71E080E090E00E9424
:100CB0006E020E94EB020E949B0164EF71E080E0F3
:100CC00090E00E946E02A0E0B0E0AB2B09F4B3CD3F
:100CD0000E940000B0CD1092380110923F01109296
:100CE000460110924701109248011092490181E09B
:100CF00080934501809342011092430192E09093CA
:100D000044018093370183E090E090933C0180930D
:100D10003B010E9477099093410180934001009725
:100D200009F46DC023E0FC0111922A95E9F781E0F6
:100D300090E090933A018093390188E090E090939D
:100D40003E0180933D0180913801882341F061E0AC
:100D500088E00E94450160E088E00E94F900E4E834
:100D6000F0E0E491F0E0EE0FFF1FEE58FF4F8591A9
:100D7000949190934B0180934A01E8E9F0E0E4916B
:100D8000E0934C0182E29BE8A2E2B0E080931A017A
:100D900090931B01A0931C01B0931D0180E295EA82
:100DA000AAEDB0E080931E0190931F01A093200153
:100DB000B093210182E292E2A2EBB0E080932201A3
:100DC00090932301A0932401B093250180E097ED37
:100DD000AFEFB0E08093260190932701A093280104
:100DE000B093290180E094E6A0E0B0E080932A016E
:100DF00090932B01A0932C01B0932D010895109294
:100E00003C0110923B0110923A011092390195CFAA
:100E100080914001909141010E94130A80913D010F
:100E200090913E0197FD03C060E00C944501089548
:100E30008F929F92AF92BF92CF92DF92EF92FF92EA
:100E4000CF93DF93EC01688179818A819B81611561
:100E500071058105910521F464E279ED8BE597E058
:100E60002DE133EF41E050E00E94BC0749015A01F7
:100E70009B01AC01A7EAB1E40E94DB076B017C0196
:100E8000ACEEB4EFA50194010E94E907C60ED71E8F
:100E9000E81EF91EF7FE06C081E0C81AD108E10875
:100EA00080E8F80AC882D982EA82FB82C701B601CB
:100EB0009F77DF91CF91FF90EF90DF90CF90BF9021
:100EC000AF909F908F9008958F929F92AF92BF9214
:100ED000CF92DF92EF92FF9260910F01709110011B
:100EE00080911101909112016115710581059105A3
:100EF00021F464E279ED8BE597E02DE133EF41E0F9
:100F000050E00E94BC0749015A019B01AC01A7EACD
:100F1000B1E40E94DB076B017C01ACEEB4EFA501EC
:100F200094010E94E907C60ED71EE81EF91EF7FEBF
:100F300006C081E0C81AD108E10880E8F80AC0922A
:100F40000F01D0921001E0921101F0921201C7013D
:100F5000B6019F77FF90EF90DF90CF90BF90AF905A
:100F60009F908F90089560930F017093100180936C
:100F70001101909312010895052E97FB1EF4009421
:100F80000E94D30757FD07D00E94EE0707FC03D04D
:100F90004EF40C94D30750954095309521953F4FD2
:100FA0004F4F5F4F089590958095709561957F4F55
:100FB0008F4F9F4F08950E941008A59F900DB49FDA
:100FC000900DA49F800D911D11240895B7FF0C94DE
:100FD000DB070E94DB07821B930B0895A1E21A2E08
:100FE000AA1BBB1BFD010DC0AA1FBB1FEE1FFF1FCD
:100FF000A217B307E407F50720F0A21BB30BE40B1D
:10100000F50B661F771F881F991F1A9469F7609563
:101010007095809590959B01AC01BD01CF0108951D
:10102000A29FB001B39FC001A39F700D811D112429
:10103000911DB29F700D811D1124911D08950E9474
:10104000930888F09F5798F0B92F9927B751B0F0BF
:10105000E1F0660F771F881F991F1AF0BA95C9F73C
:1010600014C0B13091F00E94AD08B1E008950C9425
:10107000AD08672F782F8827B85F39F0B93FCCF3D8
:10108000869577956795B395D9F73EF490958095B9
:10109000709561957F4F8F4F9F4F0895E89409C0D9
:1010A00097FB3EF490958095709561957F4F8F4F9B
:1010B0009F4F9923A9F0F92F96E9BB279395F695B1
:1010C000879577956795B795F111F8CFFAF4BB0F2F
:1010D00011F460FF1BC06F5F7F4F8F4F9F4F16C093
:1010E000882311F096E911C0772321F09EE8872F1D
:1010F000762F05C0662371F096E8862F70E060E0D9
:101100002AF09A95660F771F881FDAF7880F969551
:10111000879597F9089557FD9058440F551F59F03A
:101120005F3F71F04795880F97FB991F61F09F3FD4
:1011300079F087950895121613061406551FF2CFFD
:101140004695F1DF08C0161617061806991FF1CF4D
:1011500086957105610508940895E894BB27662774
:101160007727CB0197F908950E94C7080C94380996
:101170000E942A0938F00E94310920F0952311F0CD
:101180000C9421090C94270911240C94AE080E9498
:101190008B0870F3959FC1F3950F50E0551F629F28
:1011A000F001729FBB27F00DB11D639FAA27F00DC0
:1011B000B11DAA1F649F6627B00DA11D661F829FE7
:1011C0002227B00DA11D621F739FB00DA11D621FCC
:1011D000839FA00D611D221F749F3327A00D611DE9
:1011E000231F849F600D211D822F762F6A2F1124CB
:1011F0009F5750409AF0F1F088234AF0EE0FFF1FFE
:10120000BB1F661F771F881F91505040A9F79E3F54
:10121000510580F00C9421090C94AE085F3FE4F373
:10122000983ED4F3869577956795B795F795E795AA
:101230009F5FC1F7FE2B880F911D9695879597F9B3
:10124000089597F99F6780E870E060E008959FEF48
:1012500080EC089500240A9416161706180609064D
:10126000089500240A94121613061406050608951C
:10127000092E0394000C11F4882352F0BB0F40F4A4
:10128000BF2B11F460FF04C06F5F7F4F8F4F9F4FE4
:101290000895AA1BBB1B51E107C0AA1FBB1FA617BD
:1012A000B70710F0A61BB70B881F991F5A95A9F70F
:1012B00080959095BC01CD01089597FB072E16F4FB
:1012C000009407D077FD09D00E94490907FC05D09A
:1012D0003EF4909581959F4F0895709561957F4F4D
:1012E0000895EE0FFF1F0590F491E02D09940F93E0
:1012F0001F93CF93DF938230910510F482E090E04A
:10130000E0914F01F091500130E020E0B0E0A0E02A
:10131000309799F42115310509F44AC0281B390B7F
:1013200024303105D8F58A819B816115710589F1D9
:10133000FB0193838283FE0111C0408151810281B0
:10134000138148175907E0F04817590799F4109787
:1013500061F012960C93129713961C933296CF015C
:10136000DF91CF911F910F91089500934F0110933A
:101370005001F4CF2115310551F04217530738F0D1
:10138000A901DB019A01BD01DF01F801C1CFEF0125
:10139000F9CF9093500180934F01CDCFFE01E20F22
:1013A000F31F819391932250310939832883D7CF3A
:1013B00020914D0130914E01232B41F420911501D4
:1013C0003091160130934E0120934D01209113016D
:1013D000309114012115310541F42DB73EB74091EC
:1013E000170150911801241B350BE0914D01F0912C
:1013F0004E01E217F307A0F42E1B3F0B2817390705
:1014000078F0AC014E5F5F4F2417350748F04E0F60
:101410005F1F50934E0140934D01819391939FCF55
:10142000F0E0E0E09CCFCF93DF930097E9F0FC0180
:10143000329713821282A0914F01B0915001ED01B9
:1014400030E020E01097A1F420813181820F931FBA
:1014500020914D0130914E012817390709F061C0E4
:10146000F0934E01E0934D01DF91CF910895EA0191
:10147000CE17DF07E8F54A815B819E0141155105D2
:10148000B1F7E901FB83EA8349915991C40FD51F54
:10149000EC17FD0761F4808191810296840F951FFE
:1014A000E90199838883828193819B838A83F0E019
:1014B000E0E012968D919C9113970097B9F52D91CC
:1014C0003C911197CD010296820F931F20914D01FF
:1014D00030914E012817390739F6309751F510929F
:1014E000500110924F01B0934E01A0934D01BCCF1B
:1014F000D383C28340815181840F951FC817D907B8
:1015000061F44E5F5F4F88819981480F591F518365
:1015100040838A819B81938382832115310509F061
:10152000B0CFF0935001E0934F019ECFFD01DC015D
:10153000C0CF13821282D7CFDC0101C06D9341501E
:101540005040E0F7089510E0CDE5D0E004C0FE0182
:101550000E9471092196CE35D107C9F7F894FFCFC3
:1015600004021F02040A1F1F0E04000A00110E01CC
:0A157000000000000051018000009F
:00000001FF
